:020000040800F2
:1000000050070020CD010008190B0008F108000876
:10001000A10A000835040008DB11000800000000F8
:10002000000000000000000000000000290D000892
:100030002707000800000000E70C0008591000081E
:10004000E7010008E7010008E7010008E7010008F0
:10005000E7010008E7010008E7010008E7010008E0
:10006000E7010008E7010008E7010008E7010008D0
:10007000E7010008E7010008E7010008E7010008C0
:10008000E7010008E7010008E7010008E7010008B0
:10009000E7010008E7010008E7010008E7010008A0
:1000A000E7010008E7010008E7010008E701000890
:1000B000E7010008E7010008E7010008E701000880
:1000C000E7010008E7010008E7010008E701000870
:1000D000E7010008BD100008E7010008E70100087B
:1000E000E7010008E7010008E7010008E701000850
:1000F000E7010008E7010008E7010008E701000840
:10010000E7010008E7010008E7010008E70100082F
:10011000E7010008E7010008E7010008E70100081F
:10012000E7010008E7010008E7010008E70100080F
:1001300000F002F800F03AF80AA090E8000C8244BF
:100140008344AAF10107DA4501D100F02FF8AFF29C
:10015000090EBAE80F0013F0010F18BFFB1A43F0A5
:1001600001031847B01D0000D01D0000103A24BF45
:1001700078C878C1FAD8520724BF30C830C144BF0C
:1001800004680C607047000000230024002500264E
:10019000103A28BF78C1FBD8520728BF30C148BFEA
:1001A0000B6070471FB51FBD10B510BD00F033F8D0
:1001B0001146FFF7F7FF01F01BF900F051F803B407
:1001C000FFF7F2FF03BC01F055F800000948804733
:1001D00009480047FEE7FEE7FEE7FEE7FEE7FEE729
:1001E000FEE7FEE7FEE7FEE704480549054A064B41
:1001F000704700005D100008310100085001002028
:100200005007002050030020500300207047704723
:10021000704770477047754600F02CF8AE460500F1
:100220006946534620F00700854618B020B5FFF711
:10023000DBFFBDE820404FF000064FF000074FF015
:1002400000084FF0000B21F00701AC46ACE8C009F4
:10025000ACE8C009ACE8C009ACE8C0098D467047FD
:1002600010B50446AFF300802046BDE81040FFF70C
:10027000A6BF000000487047EC00002008B501212F
:100280001C2000F041FD40F2FC70ADF80000102091
:100290008DF8030003208DF802006946164800F02F
:1002A0008FFA43F20340ADF8000010208DF80300F0
:1002B00002208DF802006946104800F081FA012002
:1002C000ADF8000010208DF8030002208DF8020028
:1002D00069460B4800F074FA00F038FB00F020FB90
:1002E000084A0321012000F03BF8074A0221084692
:1002F00000F036F808BD000000080140000C014085
:1003000000100140500000205300002038B5054681
:100310000C460020009000956A46012100F020F86C
:10032000204600F05CFF38BD38B505460C4600207D
:10033000009000956A46012100F012F8204600F076
:1003400061FF38BD38B505460C4600200090009589
:100350006A46012100F004F8204600F07BFF38BD1A
:10036000F0B503460C4600250026002100201D465E
:100370000027DFF8B8C0CCF88471DFF8B4C0CCF83F
:10038000987100BF1AE00027DFF8A0C0CCF8847194
:1003900005F08007802F03D10127CCF8B47104E069
:1003A0000027DFF888C0CCF8B4710127DFF87CC0E3
:1003B000CCF884716F063D0E471CF8B20828E2DBCA
:1003C0000027DFF868C0CCF88471002126E0565C75
:1003D00000201AE00027DFF854C0CCF8847106F042
:1003E0008007802F03D10127CCF8B47104E00027E7
:1003F000DFF838C0CCF8B4710127DFF830C0CCF892
:10040000847177063E0E471CF8B20828E2DB00270D
:10041000DFF818C0CCF884714F1CF9B2A142D6DBCA
:100420000127DFF80CC0CCF89871F0BD00802142A4
:100430000000214200BFFEE738B50121802000F016
:1004400063FC002413E01F4800EBC4008088ADF873
:10045000000010208DF8030003208DF802001949D8
:1004600051F83400694600F0ABF9601CC4B2042CAA
:10047000E9DB002413E0144800EBC4008088ADF8E9
:10048000000048208DF8030003208DF802000E497B
:1004900051F83400694600F093F9601CC4B2042C92
:1004A000E9DB00240AE0074A02EBC4029188054A0E
:1004B00052F8340000F01AFA601CC4B2042CF2DBCB
:1004C00038BD00000C0000202C00002070B5002476
:1004D00034E0052000F066FF4A4A02EBC40291882E
:1004E000484A52F8340000F0FFF9002519E00520D1
:1004F00000F058FF444A02EBC5029188424A52F884
:10050000350000F0E8F928B90120404901EB8401E9
:10051000485504E000203D4901EB84014855681C22
:10052000C5B2042DE3DB374A02EBC4029188354A99
:1005300052F8340000F0DAF9601CC4B2042CC8DBB5
:1005400032480078012801D10D2070BD2F48407835
:10055000012801D10E20F8E72C488078012801D12C
:100560000F20F2E72948C078012801D11020ECE7DC
:1005700026480079012801D10920E6E7234840797F
:10058000012801D10A20E0E720488079012801D123
:100590000B20DAE71D48C079012801D10C20D4E7EF
:1005A0001A48007A012801D10520CEE71748407A81
:1005B000012801D10620C8E71448807A012801D11A
:1005C0000720C2E71148C07A012801D10820BCE702
:1005D0000E48007B012800D1B7E70C48407B01287A
:1005E00001D10220B1E70948807B012801D1032015
:1005F000ABE70648C07B012801D10420A5E7002015
:10060000A3E700000C0000202C000020DB000020ED
:1006100010B5FFF75BFF0446012C1ED1104800788F
:10062000D8B91048007808B9012000E000200D4931
:1006300008700846007828B14FF466714020FFF733
:1006400065FE03E000214020FFF760FE00F052F954
:10065000142000F0A7FE00F04DF901490C7010BD08
:10066000820000208100002039B1084A126801236D
:1006700083401A43054B1A6006E0044A12680123BE
:1006800083409A43014B1A60704700000074004099
:1006900030B5002200230A4C226840F6FE748440E4
:1006A000A243D1E900452C438D682C43CD6844EA30
:1006B000050303FA00F42243014C226030BD000020
:1006C0000074004008B500220092054A009200F133
:1006D0000802009B1A440092009A116008BD0000B5
:1006E0000074004008B500220092054A009200F113
:1006F0001402009B1A440092009A116008BD000089
:100700000074004070B504460D46012C04D1294602
:100710000020FFF7D7FF05E0022C03D12946002077
:10072000FFF7E0FF70BD704710B5FFF7CFFE04463E
:10073000072C1DD11D480068D0B91D4800681D490F
:10074000884205D91A4800681B49401A18490860B0
:10075000174801688020FFF7E7FD15480168102061
:10076000FFF7E2FD00F0C6F8142000F01BFE19E0D0
:10077000082C17D10D480068A0B90D4800680F4932
:10078000884205D20A4800680B49084408490860B5
:10079000074801688020FFF7C7FD00F0ABF8142080
:1007A00000F000FE0148046010BD00007000002051
:1007B0006C00002080C3C90140420F00005A620251
:1007C0002DE9F041024600250026002000230024E8
:1007D000002791F803C00CF00F0591F803C00CF04E
:1007E000100CBCF1000F03D091F802C04CEA0505D3
:1007F00091F800C0BCF1000F31D0146800202BE04C
:100800004FF0010C0CFA00F3B1F800C00CEA03063B
:100810009E4220D183004FF00F0C0CFA03F7BC432B
:1008200005FA03FC4CEA040491F803C0BCF1280F5C
:1008300006D14FF0010C0CFA00FCC2F814C00AE01B
:1008400091F803C0BCF1480F05D14FF0010C0CFA30
:1008500000FCC2F810C0401C0828D1D31460B1F8C5
:1008600000C0BCF1FF0F34DD546800202EE000F121
:10087000080C4FF0010808FA0CF3B1F800C00CEABC
:1008800003069E4221D183004FF00F0C0CFA03F7B0
:10089000BC4305FA03FC4CEA040491F803C0BCF124
:1008A000280F05D100F1080C08FA0CF8C2F81480E2
:1008B00091F803C0BCF1480F07D100F1080C4FF0CC
:1008C000010808FA0CF8C2F81080401C0828CED3A2
:1008D0005460BDE8F0810246002093680B400BB1E4
:1008E000012000E0002070474161704701617047BE
:1008F00000BFFEE700B5002007490860022000F0B5
:1009000027FD01200549C1F88001042000F020FDE9
:1009100000200149086000BD808121420080214201
:1009200000B5002007490860012000F011FD0120FA
:100930000549C1F8A8011E2000F00AFD0020014968
:10094000086000BDA8012142000021420020114999
:10095000086001201049C1F8980100200F49086083
:10096000091F08600B49083908600A491C390860EA
:100970000A49243108600A49086008493031086092
:10098000091F08600349183908600349C1F8A0012C
:1009900070470000A40121420000214284812142CD
:1009A0008001224210B50446204600F0B7F810BD81
:1009B0002DE9F041FFF78AFD0446052C2FD132487E
:1009C000006860BB31493248006801F091F8304955
:1009D000086030492E48006800F058FF02D22D48C8
:1009E0002B49086040F2FF318020FFF78FFC284838
:1009F0000168294800F07EFF07464FF07C5100F067
:100A0000A3FE064600F00EFF85B229464020FFF700
:100A10007DFCFFF76FFF142000F0C4FC30E0062CD3
:100A20002ED11948006858BB18491948006800F0D1
:100A30008BFE1749086019491548006801F026F82F
:100A400002D216481249086040F2FF318020FFF7B9
:100A50005DFC0F480168104800F04CFF07464FF05E
:100A60007C5100F071FE064600F0DCFE85B229469E
:100A70004020FFF74BFCFFF73DFF142000F092FCF5
:100A800001480460BDE8F08188000020CDCCCC3D59
:100A9000680000209A99993E00C07F446666663FD0
:100AA00000BFFEE710B586B004460121042000F027
:100AB0002BF90121480700F017F9012C03D1102070
:100AC000ADF8140004E0022C02D12020ADF814008F
:100AD00000208DF8170005A90E48FFF771FE0020D1
:100AE0000190029003900490012C07D101A9FFF717
:100AF000CFFD01210020FFF7B7FD09E0022C07D14F
:100B000001A91020FFF7C4FD01211020FFF7ACFD63
:100B100006B010BD000801407047000002490143C3
:100B2000024A1160704700000000FA050CED00E079
:100B300008B50121402000F0E7F83F20ADF80000A3
:100B400010208DF8030003208DF802006946044848
:100B5000FFF736FE3F210248FFF7C6FE08BD000042
:100B60000018014070B5054600260021284600F017
:100B70008DFE04D35449284600F088FF02D24FF07E
:100B8000FF3070BD00240BE004EB44004F4A52F8E4
:100B90002010284600F07AFE00D803E0601CC4B2A2
:100BA000402CF1DB00BF402C00DB3F2404EB440071
:100BB000464901EB80000079400104EB4401434ABF
:100BC00002EB8101497940EA011004EB440102EB98
:100BD0008101897940EAC10004EB440102EB810103
:100BE000C97940EA810004EB440102EB8101097AF2
:100BF00040EA410004EB440102EB8101497A40EAFA
:100C0000010604EB4400114601EB8000007920B19D
:100C100001212F48FFF76AFE03E001212C48FFF76E
:100C200063FE04EB4400294901EB8000407920B1C8
:100C300002212748FFF75AFE03E002212448FFF76C
:100C400053FE04EB4400214901EB8000807920B180
:100C500004211F48FFF74AFE03E004211C48FFF768
:100C600043FE04EB4400194901EB8000C07920B138
:100C700008211748FFF73AFE03E008211448FFF760
:100C800033FE04EB4400114901EB8000007A20B1EF
:100C900010210F48FFF72AFE03E010210C48FFF750
:100CA00023FE04EB4400094901EB8000407A20B1A7
:100CB00020210748FFF71AFE03E020210448FFF730
:100CC00013FE00205DE700000000FC41DC1B000873
:100CD0000018014070B50446204600F0C3FD0546EB
:100CE000FFF740FF70BD704729B1064AD269024341
:100CF000044BDA6104E0034AD2698243014BDA61B2
:100D0000704700000010024029B1064A9269024370
:100D1000044B9A6104E0034A92698243014B9A6151
:100D200070470000001002407047000070B5FFF7E8
:100D3000CDFB054609262B4804682B480068B0B156
:100D400000242A4800EB840041888020FFF7DEFA67
:100D5000264830F824100120FFF7D4FCFFF7CAFD25
:100D6000142000F01FFB00201F49086034E0022D12
:100D700018D11F480068A8B9092C00DA641C1B4868
:100D800000EB840041888020FFF7C0FA174830F854
:100D900024100120FFF7B6FCFFF7ACFD142000F093
:100DA00001FB19E0032D17D111480068A0B9002CF0
:100DB00000DD641E0D4800EB840041888020FFF7B1
:100DC000A5FA0A4830F824100120FFF79BFCFFF732
:100DD00091FD142000F0E6FA024804600448056022
:100DE00070BD00007400002064000020EA1E0008AE
:100DF0008400002010B500F001F810BD0CB50020F3
:100E0000019000903348006840F480303149086018
:100E100000BF3048006800F4003000900198401C8A
:100E20000190009818B90198B0F5A06FF1D1294848
:100E3000006800F4003010B10120009001E00020B3
:100E400000900098012843D12348006840F010002A
:100E5000214908600846006820F003000860084641
:100E6000006840F0020008601A484068194948606C
:100E70000846406848600846406840F48060486022
:100E80000846406820F47C1048600846406840F4FA
:100E9000E81048600846006840F08070086000BFB5
:100EA0000C48006800F000700028F9D0094840683C
:100EB00020F00300074948600846406840F00200FF
:100EC000486000BF0348406800F00C000828F9D1D2
:100ED0000CBD0000001002400020024010B5FFF7DA
:100EE000F5FA04460B2C13D11548006880B9154853
:100EF0000078142804DA13480078801C114908701F
:100F000010480078FFF7E6FE142000F04BFA14E0DA
:100F10000C2C12D10A48006878B90A4800780028D9
:100F200004DD08480078801E0649087005480078EE
:100F3000FFF7D0FE142000F035FA0148046010BD20
:100F4000940000209000002070B5FFF7BFFA05461E
:100F50001B4804680D2D15D11A48006890B9B42CAF
:100F600000DA1E34A0034FF4B47190FBF1F086B2A6
:100F700031461020FFF7E6F9FFF7BCFC142000F023
:100F800011FA17E00E2D15D10E48006890B9002C0B
:100F900000DD1E3CA0034FF4B47190FBF1F086B26B
:100FA00031461020FFF7CEF9FFF7A4FC142000F023
:100FB000F9F900BF024804600248056070BD0000F6
:100FC0007C0000209800002070B5FFF77FFA0546EE
:100FD0001E480468092D18D11D480068A8B9052CC1
:100FE00000D2641C1B4830F8140080034FF4B47125
:100FF00090FBF1F086B231461020FFF7A3F9FFF71E
:1010000079FC142000F0CEF91AE00A2D18D110480E
:101010000068A8B9002C00DD641E0E4830F81400EA
:1010200080034FF4B47190FBF1F086B2314610208A
:10103000FFF788F9FFF75EFC142000F0B3F900BF5A
:10104000024804600248056070BD0000780000207E
:101050008C000020DE1E00087047000010B5134809
:10106000006840F0010011490860084640681049D6
:1010700008400E494860084600680E4908400B4980
:1010800008600846006820F4802008600846406830
:1010900020F4FE0048604FF41F008860FFF7AAFEAE
:1010A0004FF000600449086010BD000000100240CD
:1010B0000000FFF8FFFFF6FE08ED00E010B540F27B
:1010C00025512B4800F05AF8002850D0284800F04D
:1010D0007FF8C4B22748008800F40040002846D1B9
:1010E0002448008800F4804038B30A2C1ED00D201C
:1010F00020490988C1F30D011F4A50541D4800883A
:10110000401C1C49088008460088C0F30D001146A9
:101110000C5418480088401C16490880084600886E
:101120004BF6FF7108401349088020E01148008801
:1011300040F400400F49088019E00D2C06D10D48FD
:10114000008840F480400B49088010E0094800887E
:10115000C0F30D0008490C5406480088401C05499E
:101160000880084600883E2801DD0020088010BD68
:1011700000380140080000209C00002070B50246A5
:10118000002400230025002040F66A16B14200D159
:1011900000BFC1F3421501F01F03012606FA03F355
:1011A000012D02D19689334006E0022D02D1168A24
:1011B000334001E0968A33400C12012606FA04F40B
:1011C0001688344013B10CB1012000E0002070BD3E
:1011D00001468888C0F30800704700BFFEE738B5B5
:1011E000054600240020009045F48054200A8DF824
:1011F0000100E0B28DF802006A4603210620FFF7E5
:10120000AFF838BD2DE9F8438146002000904846EC
:1012100000F089F907460E480CC8384600F096F9E8
:10122000054600F053F90446E0B28DF80300200AA9
:101230008DF80200200C8DF80100200E8DF80000C2
:101240006A4604210846FFF78BF8BDE8F8830000E2
:101250005800002018B5044600200090E0B28DF838
:10126000010020128DF800006A4602210520FFF7D8
:1012700077F818BD00BF704710B5FFF727F904468F
:10128000042C4BD127480078002847D1264910204C
:10129000FFF74AF825492020FFF746F82349402068
:1012A000FFF742F820498020FFF73EF840F2FF3177
:1012B0001020FFF72BF840F233112020FFF726F81B
:1012C00040F233114020FFF721F840F2FF31802037
:1012D000FFF71CF800211020FFF734F80021202030
:1012E000FFF730F800214020FFF72CF80021802084
:1012F000FFF728F8FFF7FEFA00200D4908600D48B7
:101300000D49086008480D49086000200C49086034
:101310000C4908600C4908600C49086001490C70D0
:1013200010BD00008000002080C3C90180841E0021
:10133000740000209A99993E680000206C000020FB
:1013400070000020780000207C0000206400002055
:1013500000EB4001880000BF011EA0F10100FBD19D
:10136000704700004FF0E021096921F004014FF0BF
:10137000E0221161C21700EB5272C2F3C702074BA1
:101380001A701946097801EB4102C2EBC1114FF600
:10139000FF7202EAC101024A11807047000000207A
:1013A000020000200146114A12884A434FF0E02310
:1013B0005A6100229A611A46126942F001021A61CA
:1013C00000BF4FF0E022106900F001021AB100F4F2
:1013D0008032002AF5D04FF0E022126922F001029B
:1013E0004FF0E0231A6100229A617047020000204A
:1013F000FFF734FE4FF4A060FFF7D4FA4820FFF760
:10140000B1FF4FF47A70FFF7CDFFFFF715F8FFF744
:101410008FFB0120FFF746FB0220FFF743FB14215F
:101420000120FFF76FF914210220FFF76BF9FEF797
:1014300025FF24491020FEF777FF23492020FEF7DF
:1014400073FF21494020FEF76FFF1E498020FEF701
:101450006BFF40F2FF311020FEF758FF40F23311CE
:101460002020FEF753FF40F233114020FEF74EFFDD
:1014700040F2FF318020FEF749FF00211020FEF7E7
:1014800061FF00212020FEF75DFF00214020FEF7D4
:1014900059FF00218020FEF755FFFFF72BFA0FE0E0
:1014A000FFF7EAFEFFF7B4F8FFF740FCFFF780FA1A
:1014B000FFF73AF9FFF788FDFFF710FDFFF744FD4E
:1014C000EEE7000080C3C90180841E004FEA11537B
:1014D000A3F58063D3F11E03A8BFD3F1200C08DB72
:1014E0004FF0004242EAC12252EA505232FA03F06F
:1014F000704709420BD4102BC4BF0020704703F57E
:10150000787CBCF1FF3F05D04FF0FF3070474FF0C3
:101510000000704770B500F0C3F800BF4992248006
:1015200000207047F0E7B0FA80F310FA03F10AD018
:10153000C3F11D0303F580634FEA41504FEA0352A4
:1015400002EBD12170474FF000007047DFF848C12F
:1015500070B51CEA111E1EBF1CEA13159EEA0C0F83
:1015600095EA0C0F00F06F8081EA030423EA4C1324
:101570004EEAD47E21EA4C1141F4801143F48013E9
:10158000AE44A1FB024CA0FB0365AEF17F7E361991
:1015900055EB0C05A1FB034C4CF10003A0FB021C16
:1015A00016EB0C06654153F10003094218BF46F0E3
:1015B000010613F4007F0BD14FEA03314FEA0530E7
:1015C000340341EA155140EA16506FF003020AE075
:1015D0004FEAC3214FEAC520F40241EA555140EADF
:1015E00056506FF0020202EB2E4201EB025585EAE3
:1015F000CE710AD05FEA440C18BF24F0004450F1C9
:10160000000041F1000120EAD47040F2FE7C624506
:1016100000D270BDA84214BF4FF080444FF0404448
:10162000002E08BF0024BEF1806FA8BFA1F1C04109
:10163000BDE8704080F282804FF0000001F1C041AF
:1016400001F0004170479EEA0C0F0CEA131518BF19
:1016500095EA0C0F06D04FF0000081EA030E0EF061
:10166000004170BD00F01CF88900013E00F007B891
:1016700000F009B84FEA430C5FEA5C5C08D081EAED
:10168000030100F05BB84FEA410C5FEA5C5CF6D105
:101690004FF00000014970470000FF070000F87F8D
:1016A0000EF1020E2EF0030E5EF8046B364205D4E6
:1016B000012A43EB030515F5001F12D8012841EB61
:1016C000010C1CF5001F0CD80ED14FEAD17C15F58A
:1016D000001F0CEB4C0C0CF1020C08BF4CEBD37C44
:1016E00004E04FF0080C01E04FEAD37C0CEB4C0512
:1016F00026FA05F606F00706B6F1040C06D20EEB44
:10170000860CBDE870404CF0010C6047DFE80CF03F
:10171000090B02024FF000414FF00000A1F500213B
:1017200070BD19461046012851EB010418BFD4F5CD
:10173000001484BF002001F0004170BD0808A0F52E
:1017400000114FEA3101704790EA010F48BF81F064
:10175000004100F1D481421A3CBF801A89184FEA37
:10176000D0524FF07F4C1CEA410FA2EBD15318BF6F
:101770009CEA026F00F03B804FF0004C4CEA0020E6
:101780004CEA012121FA03FC10EB0C0C1ED202F1F1
:10179000FF325FEA1C2040EBC25038BF70471CF09C
:1017A0007F0F4FEA400C18BFBCF17F4F38BF704726
:1017B000C3F12003994008BF20F00100BCF17F4F26
:1017C00038BF7047A0F1C04000F05BB94FEA3C0061
:1017D000000A40EBC25028BF1CF0FF0F4FEA400C3C
:1017E000E6D018BFBCF17F4F38BF7047EAE79CEAEC
:1017F000026F05D010EA5C0F08BF00F00040704790
:1018000010B500F0F8F800BF64FBBE3E401058BFB2
:10181000C0F14040491058BFC1F140418142EFF34F
:1018200000807047C10DD1F19E0206DB4FEA002314
:1018300043F0004323FA02F07047004207D54FEA15
:101840004001B1F1FE4F02D24FF00000704710B5D9
:1018500000F0D1F849922480002070476FEA200000
:1018600070470000B0FA80F310FA03F2C3F19D0351
:101870000AD0D90501EB1220530638BF704700F19A
:10188000010008BF20F001007047000050EA010C81
:1018900000F113801CF5000F58BFBCF5000F01D4F8
:1018A0008842704707D710F5000F58BF11F5000F99
:1018B00015D488427047894270471CF5000F04D543
:1018C000BCF5000FF7D5814270474FF0807C1CEBD0
:1018D000400F38BF1CEB410F01D28142704710B559
:1018E00000F089F8922449004FF000504FF08051E9
:1018F000FFF78CBF4FF47F0C1CEAD0121EBF1CEA0E
:10190000D11392EA0C0F93EA0C0F00F0478090EA93
:10191000010F48BF42F480724FF0004C4CEA0020A7
:101920004CEA012102EB0302A0FB0113A2F5000225
:10193000002918BF43F001035B0028BF4FEA3303BF
:1019400042EB22425FEA132C4CEBC2502EBFBCEBA1
:10195000436FB2F57C0F70474FEA036CBCF1004F48
:1019600008BF20F00100B2F57C0F38BF70470BD5DF
:1019700082F0FF0212F5803FC8BF704700F1C040FF
:10198000D8BF00F00040704700F5000C5FEA4C0C37
:1019900048BF7047B0F1C04000F073B890EA010F43
:1019A0000CEAD11348BF42F48072624538BF6345E8
:1019B00004D280EA010000F00040704710B500F04A
:1019C0001AF800BF8900013E00F007B800F009B81E
:1019D0005FEA410C5FEA1C6C08D080EA010000F06D
:1019E00050B85FEA400C5FEA1C6CF6D14FF0004043
:1019F000A0F5800070470EF1020E2EF0030E5EF887
:101A0000044B244204D44FEA4102B2F17F4F11D873
:101A10004FEA4003B3F17F4F0CD80ED14FEAD07C90
:101A2000B2F17F4F0CEB4C0C0CF1020C08BF4CEBED
:101A3000D17C04E04FF0080C01E04FEAD17C0CEBC4
:101A40004C0324FA03F404F00704B4F1040C06D2A6
:101A50000EEB840CBDE810404CF0010C6047DFE851
:101A60000CF0070802024FF00040A0F5800010BD06
:101A70000846420018BFD2F1807288BF00F00040D3
:101A800010BDFF2141EAD050C005704751EA000C5B
:101A900000F113801CF5000F58BFBCF5000F01D4F6
:101AA0008142704707D711F5000F58BF10F5000F9E
:101AB00015D481427047894270471CF5000F04D548
:101AC000BCF5000FF7D5884270474FF0807C1CEBC7
:101AD000410F38BF1CEB400F01D28842704780EAAB
:101AE000010081EA000180EA0100FFF7F8BE000072
:101AF00090EA010F48BF81F000413FF52CAE421A39
:101B000004D882F00042A0EB020011444FEAD05208
:101B10004FF07F4C1CEA410FA2EBD15318BF9CEA57
:101B2000026F4AD04FF0004C4CEA00204CEA0121F1
:101B300021FA03FCB0EB0C0C0FD412F0FE0F36D0E0
:101B40005FEA4C001DD5001240EBC25038BF704711
:101B50001CF03F0F18BF70470BE0A2F101025FEAD3
:101B60001C2040EBC25038BF70471CF07F0F18BFDD
:101B70007047C3F12003994014BF401E20F00100BC
:101B8000704780084FEA122308BF7047B0FA80FC04
:101B9000A2EB0C02CCF1280C60FA0CF093EA122FA5
:101BA00004BF00EBC25070474FEAC3707047130A7E
:101BB0005FEADC1008BF7047F6E79CEA026F04D0CA
:101BC00010EA5C0F08BF0020704710B5FFF713FF45
:101BD00040DFF63E81F0004070470000000000004A
:101BE00000000000000000000000003F00000000B6
:101BF000000100000000803F000000000100000024
:101C00000000C03F00000000010100000000004093
:101C10000000000100000000000020400000000162
:101C20000001000000004040000000010100000031
:101C30000000604000000001010100000000804041
:101C400000000100000000000000904000000100C2
:101C5000000100000000A0400000010001000000A1
:101C60000000B04000000100010100000000C04081
:101C700000000101000000000000D0400000010150
:101C8000000100000000E040000001010100000030
:101C90000000F040000001010101000000000041CF
:101CA00000010000000000000000084100010000E9
:101CB00000010000000010410001000001000000D0
:101CC0000000184100010000010100000000204157
:101CD0000001000100000000000028410001000197
:101CE000000100000000304100010001010000007F
:101CF00000003841000100010101000000004041E6
:101D00000001010000000000000048410001010046
:101D1000000100000000504100010100010000002E
:101D20000000584100010100010100000000604175
:101D300000010101000000000000684100010101F4
:101D400000010000000070410001010101000000DD
:101D50000000784100010101010100000000804104
:101D600001000000000000000000844101000000AC
:101D70000001000000008841010000000100000097
:101D800000008C41010000000101000000009041B2
:101D9000010000010000000000009441010000016A
:101DA0000001000000009841010000010100000056
:101DB00000009C4101000001010100000000A04161
:101DC00001000100000000000000A441010001002A
:101DD000000100000000A841010001000100000016
:101DE0000000AC4101000100010100000000B04111
:101DF00001000101000000000000B44101000101E8
:101E0000000100000000B8410100010101000000D4
:101E10000000BC4101000101010100000000C041BF
:101E200001010000000000000000C44101010000A9
:101E3000000100000000C841010100000100000095
:101E40000000CC4101010000010100000000D04170
:101E500001010001000000000000D4410101000167
:101E6000000100000000D841010100010100000054
:101E70000000DC4101010001010100000000E0411F
:101E800001010100000000000000E4410101010027
:101E9000000100000000E841010101000100000014
:101EA0000000EC4101010100010100000000F041CF
:101EB00001010101000000000000F44101010101E5
:101EC000000100000000F8410101010101000000D3
:101ED0000000FC4101010101010100004000B400CB
:101EE000D80024011801440100000001FF03EE00A6
:101EF000B603C8009503AA0071038C00490369006A
:101F00001C034E00DF02320058022800900114002A
:101F100064000000341F0008000000209C00000046
:101F20006C010008D01F00089C000020B4060000CF
:101F30008801000800000000000000000000000010
:101F4000001C014010000000001C014020000000A7
:101F5000001C014040000000001C01408000000007
:101F6000001C014001000000001C014002000000B4
:101F7000001C014004000000001C0140080000009B
:101F800000000000D00000000000000095D626E808
:101F90000B2E214000030200000000009A99993E98
:101FA00080C3C90100000000000000000000000024
:101FB0000000000000010000000000000000000020
:101FC0000000000000000000000000000000000011
:0400000508000131BD
:00000001FF
